:030000000207D61E
:0C07D600787FE4F6D8FD75812802081D2C
:080B5B001209D6120A0480FB06
:1009D600120003E4F514C3E5149402748094805065
:1009E6001674152514F8A61474152514F9E4FAFBE3
:0E09F600120B6B051480DF7D017F010208D01B
:100A0400900011E030E726547FF01203F08E178F28
:100A140018E517700EE51824C06004243E7004E441
:0E0A2400FD80027D017F011208D0120B7222AC
:100A7D00EFFD7C0070084391085392F78011ED64EF
:100A8D00014C700843A10253A2FD80037F00227F19
:020A9D00012234
:070B6B001204CEFF020A7D17
:1008D000EFFB7A007027EDF582758300700BED60F9
:1008E00004D2938015C2938011E582640145837020
:1008F00009ED6004D2938002C2937F0022EB640171
:100900004A7023EDFF7E00700BED6004D2A18013CE
:10091000C2A1800FEF64014E7009ED6004D2A18086
:0909200002C2A17F00227F012226
:100AC00003E80064012C015E012C012C006403E8A2
:100AD00003E803E803E803E803E803E803E803E8BE
:080B3000410000084100141E01
:050B79007E137F8822BD
:050B7E007E017FC22290
:050B83007E007F7822D6
:030B88007F302299
:030B8B007F0122C5
:100AE00074052FF582E43400F583E025E024C0F599
:0E0AF00082E4340AF583E493FE740193FF223E
:030B8E007F0022C3
:080B6300900000E0C313FF2223
:0A005100900000E075F00384FF2228
:0F0B4000120AE07C007D071204E77D0A02054ED1
:10096900E4FD7F42FEFCECC3941074809480502413
:10097900EEC313FEEF13FF30D71774052DF582E48C
:100989003400F583ECF00DEDC3940274809480502B
:06099900030C80D28D1951
:01099F002235
:100B1C0012096975E88075E16575E213E4900012BD
:040B2C00F0A3F02220
:1003F000E4F508F509F50A120B9150030204C41242
:100400000A58AD07AC06E4FBEBC395195030ECC3BA
:1004100013FCED13FD30D72374052BF582E4340073
:10042000F583E0FF7E007401A807088005C333CE82
:1004300033CED8F9420AEE420905080B80CAAF084C
:100440007E00C3EF940274809480400ED200EF943B
:1004500003748094804003120B9420001FE50A452A
:10046000096010900013E004F07006900012E004A0
:10047000F0801CE4900012F0A3F08013900010E0D4
:1004800004F0700690000FE004F0E4F509F50A129C
:100490000B79D3900013E09F900012E09E400A1267
:1004A0000B94E4900012F0A3F0D3900010E0942C91
:1004B00090000FE094014011120B94E490000FF0B3
:0D04C000A3F080057F02120722AE09AF0AEB
:0104CD00220C
:070B380041002100011A0039
:1006640075F00290001512059AE0FEA3E0FFE50D77
:1006740075F00290000702059AE50C75F0029000EF
:100684000B02059AAD10ED3395E0FCC3ED9519749A
:1006940080F86C98223395E0FEE50C75F00290002A
:1006A4000102059AD3E50E9FEE6480F8E50D64809F
:1006B400982290001FE0FEA3E0FF90001BE022E5DB
:1006C4000D75F00290001502059AFEC3E50F9FEE2A
:1006D4006480F8E50E64809822900022E02405F5F9
:1006E40082E43400F583E022E0FCA3E0C39F22A46B
:1006F400FFE0C39FE5F06480F8748098227421259C
:1007040010F8E622FCEF9DEC6480F8EE64809822F9
:0E0714005EFEA3E05F4E2290001AE0650C220C
:0C0B4F00EF4E6007EF1F70F81E80F522CB
:03005B0002086236
:10086200C0E0C0F0C083C082C0D075D000C000C05C
:1008720004C005C006C007781AE6FF7E00ADE4ACEE
:10088200E51204E7900022E0120674EEF0A3EFF006
:10089200900022E004F0E0FDC395194010E4F090CE
:1008A2000011E04480F01206DDF5E8800C74052D9D
:1008B2001206E34480F5E8D2EED007D006D005D088
:0E08C20004D000D0D0D082D083D0F0D0E0326D
:1000030075FE8553FFDF439101C290D2AFC201E475
:10001300900022F0900011F0120B1C120929E5E167
:10002300540F2401FFE433FEEF7803C333CE33CE02
:10003300D8F9FF7C007D031204F9781AA60743A9B7
:0E004300101206DD42E8D2EE1209A0020AFEFB
:070B7200C290D2EFD2EE2287
:100A3200E4FD900011E0547FF0120B72900011E07F
:100A420020E7127FE87E03120B4F43CF100DEDC358
:050A5200943240E8228F
:010A5700227C
:1009A000E4F50A750810120A32AF081508EF70F660
:1009B000120A9F120B888F08120A32E4F509E50922
:1009C000C395195009AF091205A6050980F0AF08B3
:0509D0001508EF70E3C3
:0109D50022FF
:100AFE00E4FFEFC395195015EF120674E0FCA3E066
:0D0B0E00FDEF12069FECF0A3EDF00F80E567
:010B1B0022B7
:100A5800E4900023F0F50BE50BC39519500EAF0B8E
:100A68001205A6AF0B12005E050B80EB90001BE091
:040A7800FEA3E0FFFA
:010A7C002257
:02005E008F0C05
:10006000E4F50F75F002EF120677E0FEA3E0FF1251
:10007000069D1206ECF50EEC9EF50D74017E00A8AF
:100080000C088005C333CE33CED8F9900020F0EEB3
:1000900090001FF0AF0C120AE08E128F13C3E50E12
:1000A0009513E5121206AD4005750F018003E4F5C6
:1000B0000FE50F640160030201C47421250CF8E60A
:1000C000C394FA5001061206B61207146003020127
:1000D000A3900000E0F511120B8BEF64017026F580
:1000E0000FF510120688500E120701C3940140024A
:1000F000050F051080EDC3E50F64809483400674FE
:10010000142511F5117421250CF8E6C3951150033F
:100110000201A3E4F50F120B8EEF7046F5101206E4
:10012000885019E50C6510600F120051120701C3C9
:100130009F4005750F018004051080E2120B8BEFC4
:100140007047F5101206885040E50C6510600F12DC
:10015000005174232510F8E6C39F40028028051043
:1001600080E2120B8BEF7021F511F510120688500A
:100170000E120701C3940240020511051080EDE53F
:1001800011C394034003750F01E50F700B1206B6FF
:100190004EF0A3E04FF0800B1206B64EF0A3E04FF6
:1001A000F0D2007425250CF8E4F67427250CF8E449
:1001B000F612067DE4F0A3F012071B60030203EFC2
:1001C00074FFF022AF0C120B401206A840087423F3
:1001D000250CF806800D900023E004F07423250C14
:1001E000F8E4F6900014E0FF3395E0FEC3E49FFDD1
:1001F000E49EFCC3E50E9DEC1206AD50030202A87E
:100200001206A840030202A890001BE07002A3E0BF
:10021000600302035F12067DE50D850EF012058472
:10022000120B8312067D1206ECEE6480F8EC6480FB
:1002300098402D12069DC083C082E0FEA3E0FF908F
:100240000014E0FD7803A2E713D8FBFD3395E0FC32
:10025000C3EF9DFFEE9CD082D083F0A3EFF08030FF
:10026000120B83C3E49FFFE49EFE12067D1206EC90
:10027000EE6480F8EC648098501D900014E0FF78E4
:1002800003A2E713D8FBFF120699EE8FF012058444
:1002900012067DE4F0A3F07425250CF8E4F61207AD
:1002A0001B600302035F804B900014E0FFFD339559
:1002B000E0FCC3E49DFBE49CFAC3E50E9BEA120656
:1002C000AD50357425250CF8067425250CF8E6FE8E
:1002D00075F00A84E5F07016EEC394284006E4F643
:1002E000D201800AEF120699EE8FF01205841207F0
:1002F0001B706C74FFF08067D3E50E9DEC1206ADA9
:10030000405DE50E9513E5121206AD505290001BAC
:10031000E07002A3E0704890001AE0FFB4FF0CE523
:100320000CF0E490001DF0A3F08034EFB50C309099
:10033000001DE475F001120584120B7EC390001EAF
:10034000E09F90001DE09E40161206B61207147042
:1003500004D201800A90001D74FFF5F0120584128A
:1003600006B61207146055750F01AE12AF137C006C
:100370007D031204E70D12054EC31206A950367410
:1003800027250CF806120B638F117427250CF8E64D
:10039000C39511405AE4F690001FE0FEA3E0F4FF7D
:1003A000EEF4FE90001BE05EF0A3E05FF074212508
:1003B0000CF8E4F6227427250CF816227421250C7B
:1003C000F8E4F6E51914650C7025900023E0C39558
:1003D00019401CE4F50FF510120688500C120701A5
:0F03E0006003750F01051080EFE50F7002C2007A
:0103EF0022EB
:100A9F00E4FFEFC39519501875F002EF120677E0D7
:100AAF00FCA3E0FDEF1206C5ECF0A3EDF00F80E222
:010ABF002214
:0205A6008F0DB7
:1005A800EF1206641206ECF50FEC9EF50EAF0D1275
:1005B8000AE0AD07AC06D3E50F9DEC1206D4500B4C
:1005C800C3E49DFFE49C1206CE500B120672E0FEB7
:1005D800A3E0FF020651ECA2E713FEED13FFD312CE
:1005E80006D0500BC3E49FFFE49E1206CE5027129C
:1005F80006C3E0FCA3E0FDECC313FEED13FFC3ED5F
:100608009FFDEC9EFC120672E0C313FEA3E0132DBF
:10061800FFEC3EFE80331206C3E0FCA3E0FDECC411
:10062800F854F0C868FEEDC4540F48FFC3ED9FFDB1
:10063800EC9EFC120672E0C4F854F0C868FEA3E011
:10064800C4540F482DFFEC3EFE1206C3EEF0A3EF94
:0B065800F0E50D120664EEF0A3EFF0D9
:010663002274
:030B9100A201229C
:030B9400D2012269
:10092900E4FFEFC39519502374212FF8E4F67425D9
:100939002FF8E4F674272FF8E4F6EF12067FE4F0B7
:10094900A3F074232FF8E4F60F80D7E490001BF08E
:0F095900A3F090001A74FFF0E490001DF0A3F0DB
:01096800226C
:020722008F0B3B
:10072400900021E0C394034004E40207CC90001934
:10073400E004F0E0B50B08120A9FE490001AF09070
:100744000019E0D3950B50030207D5E4F50CE50C32
:10075400C39519503E75F002E50C1206C8E0FEA3DD
:10076400E0FF75F002E50C1206771206ECFFEC9E32
:10077400FE900014E0FD3395E0D3120708400BE42B
:100784009DFDE49CC31207084009AF0C1205A605A1
:100794000C80BBE50CB5190690001AE004F0E50BDB
:1007A400FD7C0075F0089000191206F34023E4F074
:1007B400C200900021E004F0ED75F00490001A12DC
:1007C40006F3400DE4900021F0120AFE120929C23A
:0107D4000123
:0107D5002201
:1007E200020B5BE493A3F8E493A34003F68001F2C7
:1007F20008DFF48029E493A3F85407240CC8C33318
:10080200C4540F4420C8834004F456800146F6DFE6
:10081200E4800B0102040810204080900B30E47E3B
:10082200019360BCA3FF543F30E509541FFEE493DB
:10083200A360010ECF54C025E060A840B8E493A3A2
:10084200FAE493A3F8E493A3C8C582C8CAC583CACD
:10085200F0A3C8C582C8CAC583CADFE9DEE780BE85
:010B3F0000B5
:1004CE00BB010689828A83E0225002E722BBFE022C
:0904DE00E32289828A83E493225F
:1004E700EF8DF0A4A8F0CF8CF0A428CE8DF0A42E29
:0204F700FE22E3
:1004F900BC000BBE0029EF8DF084FFADF022E4CCE7
:10050900F875F008EF2FFFEE33FEEC33FCEE9DECAF
:10051900984005FCEE9DFE0FD5F0E9E4CEFD22EDF5
:10052900F8F5F0EE8420D21CFEADF075F008EF2F3F
:10053900FFED33FD4007985006D5F0F222C398FD30
:050549000FD5F0EA22CD
:10054E00C2D5EC30E709B2D5E4C39DFDE49CFCEEC8
:10055E0030E715B2D5E4C39FFFE49EFE1204F9C343
:10056E00E49DFDE49CFC80031204F930D507C3E43E
:06057E009FFFE49EFE2237
:10058400C5F0F8A3E028F0C5F0F8E5821582700202
:060594001583E038F0229F
:0C059A00A42582F582E5F03583F583226C
:00000001FF
