:03000000020903EF
:0C090300787FE4F6D8FD75814002094AB7
:08000300120B92120C2880FB85
:100B920012001E120A56E4F508C3E5089402748096
:100BA20094805016741B2508F8A608741B2508F9B2
:100BB200E4FAFB120054050880DF7D017F0112096F
:040BC200FD020BC65F
:100C2800900011E030E726547FF01205F58E1D8FF5
:100C38001EE51D700EE51E24C06004243E7004E409
:0D0C4800FD80027D017F011209FD120DA447
:010C5500227C
:03000B00020AA442
:100AA400C0E0C0F0C083C082C0D075D000C000C018
:100AB40001C002C003C004C005C006C007758A8017
:100AC400758CC1120D36D007D006D005D004D003E2
:100AD400D002D001D000D0D0D082D083D0F0D0E0EA
:010AE40032DF
:03001B0002001AC6
:01001A0032B3
:03002B00020028A8
:03002800C2CF3212
:100C7B00EFFD7C0070084391085392F78011ED64EF
:100C8B00014C700843A10253A2FD80037F00227F19
:020C9B00012234
:070054001203F0FF020C7B18
:1009FD00EFFB7A007027EDF582758300700BED60CB
:100A0D0004D2938015C2938011E5826401458370F1
:100A1D0009ED6004D2938002C2937F0022EB640142
:100A2D004A7023EDFF7E00700BED6004D2A18013A0
:100A3D00C2A1800FEF64014E7009ED6004D2A18058
:090A4D0002C2A17F00227F0122F8
:100BC600758E07438901758A80758CC1C28CD2A93E
:100BD600D28C438920758B60758D60C28ED2ABD264
:100BE6008EE4F5C875CB83F5CAC2CAD2ADD2CAD2D5
:020BF600AF222C
:060D500004310000000068
:0A001E00E4F534F533F532F5312234
:100D3600AF34AE33AD32AC31EF2401F534E43EF5D9
:0A0D460033E43DF532E43CF53122C0
:090D9300AF34AE33AD32AC3122B5
:100D1A008F308E2F8D2E8C2D120D931204FDAF3035
:0C0D2A00AE2FAD2EAC2D9000040205177A
:100BF8008B358A3689379000041204CD12053BC321
:100C0800E5349BFBE5339AFAE53299F9E53198F832
:100C1800C31204BCE440047F018001FFFEFDFC22F6
:100CBE0003E80032012C015E012C012C003203E806
:100CCE0003E803E803E803E803E803E803E803E8BE
:080D5600410000084100141ED9
:050DAB007E137F882289
:050DB0007E017FC2225C
:050DB5007E007F7822A2
:030DBA007F302265
:030DBD007F012291
:100CDE0074052FF582E43400F583E025E024BEF59B
:0E0CEE0082E4340CF583E493FE740193FF223C
:030DC0007F00228F
:080D9C00900000E0C313FF22E8
:0A0D8900900000E075F00384FF22E3
:0F0D7A00120CDE7C007D071204097D0A02047052
:100B2500E4FD7F42FEFCECC3941074809480502455
:100B3500EEC313FEEF13FF30D71774052DF582E4CE
:100B45003400F583ECF00DEDC3940274809480506D
:060B5500030C80D28D1F8D
:010B5B002277
:100D6600120B2575E88075E16575E213E4900012B3
:040D7600F0A3F022D4
:1005F500E4F521F522F523120DC350030206C912B5
:100605000C56AD07AC06E4FBEBC3951F5030ECC3AD
:1006150013FCED13FD30D72374052BF582E434006C
:10062500F583E0FF7E007401A807088005C333CE7B
:1006350033CED8F94223EE422205210B80CAAF21E1
:100645007E00C3EF940274809480400ED200EF9434
:1006550003748094804003120DC620001FE52345D6
:10066500226010900013E004F07006900012E00480
:10067500F0801CE4900012F0A3F08013900010E0CD
:1006850004F0700690000FE004F0E4F522F5231263
:100695000DABD3900013E09F900012E09E400A122C
:1006A5000DC6E4900012F0A3F0D3900010E0942C56
:1006B50090000FE094014011120DC6E490000FF078
:0D06C500A3F080057F0212084FAE22AF2384
:0106D2002205
:070D5E0041002100014000EB
:1007910075F00290001512055BE0FEA3E0FFE5266F
:1007A10075F00290000702055BE52575F0029000E7
:1007B1000B02055BAD29ED3395E0FCC3ED951F748C
:1007C10080F86C98223395E0FEE52575F0029000E3
:1007D1000102055BD3E5279FEE6480F8E52664807E
:1007E100982290001FE0FEA3E0FF90001BE022E5AD
:1007F1002675F00290001502055BFEC3E5289FEE09
:100801006480F8E52764809822900022E02405F5B1
:1008110082E43400F583E022E0FCA3E0C39F22A43C
:10082100FFE0C39FE5F06480F87480982274382556
:1008310029F8E622FCEF9DEC6480F8EE64809822B2
:0E0841005EFEA3E05F4E2290001AE0652522C5
:0C000E00EF4E6007EF1F70F81E80F52217
:03005B0002098F08
:10098F00C0E0C0F0C083C082C0D075D000C000C02E
:10099F0004C005C006C0077840E6FF7E00ADE4AC9A
:1009AF00E5120409900022E01207A1EEF0A3EFF088
:1009BF00900022E004F0E0FDC3951F4010E4F0909A
:1009CF000011E04480F012080AF5E8800C74052D40
:1009DF001208104480F5E8D2EED007D006D005D02B
:0E09EF0004D000D0D0D082D083D0F0D0E0323F
:100A560075FE8553FFDF439101C290D2AFC201E418
:100A6600900022F0900011F0120D66120AE5E5E101
:100A7600540F2401FFE433FEEF7803C333CE33CEA5
:100A8600D8F9FF7C007D0312041B7840A60743A912
:0E0A96001012080A42E8D2EE120B5C020CFCB1
:070DA400C290D2EFD2EE2253
:10002E00E4FD900011E0547FF0120DA4900011E059
:10003E0020E7127FE87E0312000E43CF100DEDC3B2
:05004E00943240E8229D
:01005300228A
:100B5C00E4F52375211012002EAF211521EF70F64C
:100B6C00120C9D120DBA8F2112002EE4F522E522F3
:100B7C00C3951F5009AF221206D3052280F0AF2176
:050B8C001521EF70E3EC
:010B91002241
:100CFC00E4FFEFC3951F5015EF1207A1E0FCA3E032
:0D0D0C00FDEF1207CCECF0A3EDF00F80E539
:010D190022B7
:100C5600E4900023F0F524E524C3951F500EAF243D
:100C66001206D3AF2412005E052480EB90001BE031
:040C7600FEA3E0FFFA
:010C7A002257
:02005E008F25EC
:10006000E4F52875F002EF1207A4E0FEA3E0FF120A
:1000700007CA120819F527EC9EF52674017E00A820
:1000800025088005C333CE33CED8F9900020F0EE9A
:1000900090001FF0AF25120CDE8E2B8F2CC3E527AE
:1000A000952CE52B1207DA40057528018003E4F54D
:1000B00028E528640160030201C474382525F8E6A8
:1000C000C394FA5001061207E312084160030201CB
:1000D000A3900000E0F52A120DBDEF64017026F533
:1000E00028F5291207B5500E12082EC394014002BC
:1000F0000528052980EDC3E52864809483400674B3
:1001000014252AF52A74382525F8E6C3952A5003C4
:100110000201A3E4F528120DC0EF7046F52912077D
:10012000B55019E5256529600F120D8912082EC3F7
:100130009F40057528018004052980E2120DBDEF5E
:100140007047F5291207B55040E5256529600F1263
:100150000D89743A2529F8E6C39F400280280529B5
:1001600080E2120DBDEF7021F52AF5291207B55076
:100170000E12082EC394024002052A052980EDE5DF
:100180002AC394034003752801E528700B1207E386
:100190004EF0A3E04FF0800B1207E34EF0A3E04FC8
:1001A000F0D200743C2525F8E4F6743E2525F8E4E9
:1001B000F61207AAE4F0A3F012084860030203EF66
:1001C00074FFF022AF25120D7A1207D54008743A59
:1001D0002525F806800D900023E004F0743A2525CB
:1001E000F8E4F6900014E0FF3395E0FEC3E49FFDD1
:1001F000E49EFCC3E5279DEC1207DA50030202A837
:100200001207D540030202A890001BE07002A3E091
:10021000600302035F1207AAE5268527F01204A6F1
:10022000120DB51207AA120819EE6480F8EC64806A
:1002300098402D1207CAC083C082E0FEA3E0FF9061
:100240000014E0FD7803A2E713D8FBFD3395E0FC32
:10025000C3EF9DFFEE9CD082D083F0A3EFF08030FF
:10026000120DB5C3E49FFFE49EFE1207AA120819FF
:10027000EE6480F8EC648098501D900014E0FF78E4
:1002800003A2E713D8FBFF1207C6EE8FF01204A6F5
:100290001207AAE4F0A3F0743C2525F8E4F612084E
:1002A00048600302035F804B900014E0FFFD33952C
:1002B000E0FCC3E49DFBE49CFAC3E5279BEA12073C
:1002C000DA5035743C2525F806743C2525F8E6FE01
:1002D00075F00A84E5F07016EEC394284006E4F643
:1002E000D201800AEF1207C6EE8FF01204A61208A0
:1002F00048706C74FFF08067D3E5279DEC1207DA35
:10030000405DE527952CE52B1207DA505290001B33
:10031000E07002A3E0704890001AE0FFB4FF0CE523
:1003200025F0E490001DF0A3F08034EFB525309067
:10033000001DE475F0011204A6120DB0C390001E5A
:10034000E09F90001DE09E40161207E312084170E6
:1003500004D201800A90001D74FFF5F01204A61269
:1003600007E31208416055752801AE2BAF2C7C00C5
:100370007D031204090D120470C31207D65036749F
:100380003E2525F806120D9C8F2A743E2525F8E699
:10039000C3952A405AE4F690001FE0FEA3E0F4FF64
:1003A000EEF4FE90001BE05EF0A3E05FF0743825F1
:1003B00025F8E4F622743E2525F816227438252502
:1003C000F8E4F6E51F1465257025900023E0C39539
:1003D0001F401CE4F528F5291207B5500C12082E11
:0F03E0006003752801052980EFE5287002C2002F
:0103EF0022EB
:100C9D00E4FFEFC3951F501875F002EF1207A4E0A3
:100CAD00FCA3E0FDEF1207F2ECF0A3EDF00F80E2F4
:010CBD002214
:0206D3008F2670
:1006D500EF120791120819F528EC9EF527AF26129F
:1006E5000CDEAD07AC06D3E5289DEC120801500BD6
:1006F500C3E49DFFE49C1207FB500B12079FE0FE2D
:10070500A3E0FF02077EECA2E713FEED13FFD31271
:1007150007FD500BC3E49FFFE49E1207FB50271211
:1007250007F0E0FCA3E0FDECC313FEED13FFC3ED02
:100735009FFDEC9EFC12079FE0C313FEA3E0132D63
:10074500FFEC3EFE80331207F0E0FCA3E0FDECC4B5
:10075500F854F0C868FEEDC4540F48FFC3ED9FFD83
:10076500EC9EFC12079FE0C4F854F0C868FEA3E0B5
:10077500C4540F482DFFEC3EFE1207F0EEF0A3EF38
:0B078500F0E526120791EEF0A3EFF064
:010790002246
:030DC300A2012268
:030DC600D2012235
:100AE500E4FFEFC3951F502374382FF8E4F6743CE8
:100AF5002FF8E4F6743E2FF8E4F6EF1207ACE4F0B5
:100B0500A3F0743A2FF8E4F60F80D7E490001BF0B9
:0F0B1500A3F090001A74FFF0E490001DF0A3F01D
:010B240022AE
:02084F008F24F4
:10085100900021E0C394034004E40208F9900019D8
:10086100E004F0E0B52408120C9DE490001AF09029
:100871000019E0D395245003020902E4F525E5258A
:10088100C3951F503E75F002E5251207F5E0FEA362
:10089100E0FF75F002E5251207A4120819FFEC9E8E
:1008A100FE900014E0FD3395E0D3120835400BE4CF
:1008B1009DFDE49CC31208354009AF251206D305FE
:1008C1002580BBE525B51F0690001AE004F0E5245C
:1008D100FD7C0075F0089000191208204023E4F017
:1008E100C200900021E004F0ED75F00490001A12AE
:1008F1000820400DE4900021F0120CFC120AE5C220
:0109010001F4
:0109020022D2
:10090F00020003E493A3F8E493A34003F68001F2FB
:10091F0008DFF48029E493A3F85407240CC8C333E9
:10092F00C4540F4420C8834004F456800146F6DFB8
:10093F00E4800B0102040810204080900D50E47EEB
:10094F00019360BCA3FF543F30E509541FFEE493AD
:10095F00A360010ECF54C025E060A840B8E493A374
:10096F00FAE493A3F8E493A3C8C582C8CAC583CA9F
:10097F00F0A3C8C582C8CAC583CADFE9DEE780BE57
:010D6500008D
:1003F000BB010689828A83E0225002E722BBFE020B
:09040000E32289828A83E493223D
:10040900EF8DF0A4A8F0CF8CF0A428CE8DF0A42E07
:02041900FE22C1
:10041B00BC000BBE0029EF8DF084FFADF022E4CCC5
:10042B00F875F008EF2FFFEE33FEEC33FCEE9DEC8E
:10043B00984005FCEE9DFE0FD5F0E9E4CEFD22EDD4
:10044B00F8F5F0EE8420D21CFEADF075F008EF2F1E
:10045B00FFED33FD4007985006D5F0F222C398FD0F
:05046B000FD5F0EA22AC
:10047000C2D5EC30E709B2D5E4C39DFDE49CFCEEA7
:1004800030E715B2D5E4C39FFFE49EFE12041BC300
:10049000E49DFDE49CFC800312041B30D507C3E4FB
:0604A0009FFFE49EFE2216
:1004A600C5F0F8A3E028F0C5F0F8E58215827002E1
:0604B6001583E038F0227E
:1004BC00EB9FF5F0EA9E42F0E99D42F0E89C45F096
:0104CC00220D
:1004CD00BB010DE58229F582E5833AF583020573BB
:1004DD005007E92582F8020567BBFE07E92582F87A
:1004ED0002057FE58229F582E5833AF58302058BC6
:1004FD00BB010789828A830205DD5005E9F80205F3
:0A050D00D1BBFE05E9F80205E92262
:10051700BB010DE58229F582E5833AF5830205DD06
:100527005007E92582F80205D1BBFE07E92582F8C5
:040537000205E922AE
:10053B00BB010789828A830205A85005E9F80205E9
:10054B009BBBFE05E9F80205B489828A830205C1CB
:0C055B00A42582F582E5F03583F58322AB
:0C056700E6FC08E6FD08E6FE08E6FF22C0
:0C057300E0FCA3E0FDA3E0FEA3E0FF22FB
:0C057F00E2FC08E2FD08E2FE08E2FF22B8
:10058B00E493FC740193FD740293FE740393FF22B6
:0D059B00E6FB08E6F908E6FA08E6CBF822D0
:0C05A800E0F8A3E0F9A3E0FAA3E0FB22D6
:0D05B400E2FB08E2F908E2FA08E2CBF822C7
:1005C100E493F8740193F9740293FA740393FB2290
:0C05D100ECF608EDF608EEF608EFF62256
:0C05DD00ECF0A3EDF0A3EEF0A3EFF02291
:0C05E900ECF208EDF208EEF208EFF2224E
:00000001FF
